:020000040800F2
:10000000580D00204D5F0008715F0008B95C0008C2
:10001000755F0008795F00087D5F00080000000040
:10002000000000000000000000000000815F0008E8
:10003000855F000800000000895F0008215D00085E
:100040008D5F0008915F0008955F0008995F0008C8
:100050009D5F0008A15F0008455D0008A55F0008DE
:10006000A95F0008AD5F0008B15F0008B55F000838
:10007000B95F0008BD5F0008C15F0008C55F0008E8
:10008000C95F0008CD5F0008C95B0008D15F0008A8
:10009000D55F0008D95F0008DD5F0008E15F000858
:1000A000E55F0008E95F0008ED5F0008F15F000808
:1000B000315C0008F55F0008F95F0008FD5F00088B
:1000C0000160000805600008096000080D60000874
:1000D000116000084D5C00081560000819600008F8
:1000E0001D60000821600008256000080B5C000806
:1000F000F95B0008296000082D60000831600008E5
:1001000035600008396000083D6000084160000863
:1001100045600008496000084D6000085160000813
:1001200055600008596000085D60000861600008C3
:1001300065600008696000086D6000087160000873
:1001400075600008796000087D6000088160000823
:1001500085600008896000088D60000891600008D3
:1001600095600008996000089D600008A160000883
:10017000A5600008A9600008AD600008000000004C
:10018000B1600008B560000830B581B00446214672
:10019000D4F89020906800F042F8D4F89000DFF88E
:1001A0005C2C8368DFF8581C934204D10D6845F03D
:1001B00001050D6003E00B6843F002030B606FF074
:1001C0000405DFF8401C8B6843F001038B60D1F815
:1001D000083143F00103C1F808310D604B6843F06A
:1001E00080034B60CB6A23F47003CB62806890423B
:1001F000886820F47C10C4F888000CBF40F480119B
:1002000040F4F011002084F88C00A4F85C00C4F8DD
:100210008410B4F86400A4F85E0001B030BD026838
:1002200052085200026000F11802136843F00803FC
:100230001360D2F800C04CF4006C42F804CB136891
:1002400043F008031360D2F800C04CF4006CC2F80D
:1002500000C0D1F8903093F8302032B16FF08003B5
:100260000361C26842F08002C260426942F001024A
:100270004261D1F890209378022B0DD1D378012BD5
:1002800004BF927B032A0AD103630323426942F02D
:1002900001024261036302E091F854201AB9B1F8F7
:1002A0008010491E4162704730B5054681B0D5F8CF
:1002B00090000FF2012284680021E96629676967CE
:1002C00085F883104EF6AA20216A014021626A60F7
:1002D000D5F890000179D5F89000C903A967417954
:1002E000C903E967284600F04FF905E0E068C10757
:1002F0005CBF102085F8830095F883001028F5D3A3
:10030000002185F883100FF2F110D5F89010686085
:100310008879C003A867D5F890008179C903E96797
:10032000284600F031F905E0E068C1075CBF102005
:1003300085F8830095F883000828F5D3E86E0FF25E
:1003400055016960C008E866286FC0082867686FB3
:10035000C00868674FF2F770A1690140A161E269C6
:100360001040E061B5F880006063B5F88010A163CB
:10037000B5F88000E06340F60800A1690143A1617F
:10038000E2691043E06140F25550216A0143216265
:1003900001B030BD10B4D0F890209368DFF8602B26
:1003A00003F1200402EB44120023136080F8823032
:1003B00090F84620052A6DD8DFE802F0224848036D
:1003C0000322DFF8402B1468C36EA3EB4403DFF86D
:1003D000384BA342B8BF234604DBB3F5004FA8BF98
:1003E00047F6FF730B80D2F80031026FA2EB430295
:1003F000A2424CDBB2F5004F4BDB47F6FF7248E000
:10040000DFF8002B1468036FA3EB4403DFF8F84A0E
:10041000A342B8BF234604DBB3F5004FA8BF47F69D
:10042000FF734B80D2F80021436FC3EB4203B1F955
:1004300002209A1AB2F5004FA8BF47F6FF7203DAFE
:10044000A242B8BF0C8025DB0A8023E0DFF8B42A83
:100450001468C36EA3EB4403DFF8AC4AA342B8BFF1
:10046000234604DBB3F5004FA8BF47F6FF730B80AC
:10047000D2F80021436FC3EB4203B1F900209A1A6E
:10048000B2F5004FACBF47F6FF72A24201DA4C80D2
:1004900000E04A800A88A0F856204B88A0F858301F
:1004A000B1F9002049885242521AA0F85A2010BCD3
:1004B00070470000D0F890108A68DFF8441A02F103
:1004C000200301EB431100220A6080F8822090F89B
:1004D000831010290FD2DFF82C2AC36E1168CB18B5
:1004E000C366036FD2F80011CB18036790F883201E
:1004F000521C80F883207047D0F890108A68DFF88B
:10050000001A02F1200301EB431100220A6080F877
:10051000822090F8831008290ED2DFF8E819436F83
:100520000A68D3184367D1F80011CB18436790F8D5
:100530008320521C80F883207047D0F8901089687F
:10054000012280F850206FF001030B6100224A6302
:100550008A63CA630A69D307FCD54A6C42F4004235
:100560004A64D0F890100A7D022A0CD1CA698969C0
:100570008A61D0F890104A6A096A8A61D0F89000BE
:10058000C16A806A81617047D0F890108968002242
:1005900080F85020DFF87429136823F00C031360EF
:1005A000D2F800C12CF00C0CC2F800C16FF00102AF
:1005B0000A61CB6843F00103CB604A6C42F400420D
:1005C0004A64D0F89020137D022B1FD19369D26921
:1005D000096A40F2555C11EA0C0F09D09A61D0F813
:1005E00090104A6A096A8A61D0F89000C16A0BE0EB
:1005F00012049A61D0F890104A6A096A12048A615A
:10060000D0F89000C16A0904806A81617047D0F80F
:1006100090108A68002380F85030D168490849005A
:10062000D1604FF6AA21136A0B4013621169CB0700
:1006300002D4D168CB07F9D5516C21F40041516443
:10064000D0F890100B7D022B0FD1CB6989691B0468
:100650008B61D0F890104B6A096A1B048B61D0F84B
:100660009000C16A806A0904816140F25550116AA4
:10067000014311627047F0B5D0F89020D0F8843073
:100680009268D0F89040B0F84850B0F8806023F4F9
:100690004013C0F88430771B238A1FFA87FE734506
:1006A0004FF480110ED2D0F890400323A0F84630CA
:1006B0002579D0F89040B0F88030ED0385675B1E57
:1006C00065791BE0B0F84AC03F04A5EB0C0CFF0BAA
:1006D0001FFA8CFC674502D2638AEB1A08E05B19AB
:1006E0009BB2B34204DBC3EB46034FF400115B1E25
:1006F0006479E4038467D0F89040A579D0F8844009
:10070000ED032143C567C0F884109BB21364D0F891
:1007100090108968B0F848204A63B0F84A308B637B
:10072000B0F84C20CA6390F88200401E8041C0435C
:10073000C00FF0BDF0B5D0F89020D0F884309268AA
:10074000D0F89040B0F84A50B0F8806023F44013DD
:10075000C0F88430771B238A1FFA87FE73454FF455
:1007600080110ED2D0F890400323A0F846302579AE
:10077000D0F89040B0F88030ED0385675B1E657956
:100780001BE0B0F848C03F04A5EB0C0CFF0B1FFAB0
:100790008CFC674502D2638AEB1A08E05B199BB2B6
:1007A000B34204DBC3EB46034FF400115B1E247914
:1007B000E4038467D0F89040A579D0F88440ED0335
:1007C0002143C567C0F884109BB21364D0F8901021
:1007D0008968B0F848204A63B0F84A308B63B0F8B3
:1007E0004C20CA6390F88200401E8041C043C00F75
:1007F000F0BDF0B5D0F89020D0F884309268D0F8F1
:100800009040B0F84A50B0F8806023F44013C0F82C
:100810008430771B238A1FFA87FE73454FF48011BB
:100820000ED2D0F890400323A0F846302579D0F8B6
:100830009040B0F88030ED0385675B1E65791BE062
:10084000B0F84CC03F04A5EB0C0CFF0B1FFA8CFC5E
:10085000674502D2638AEB1A08E05B199BB2B34288
:1008600004DBC3EB46034FF400115B1E2479E40361
:100870008467D0F89040A579D0F88440ED032143F7
:10088000C567C0F884109BB21364D0F890108968D3
:10089000B0F848204A63B0F84A308B63B0F84C2077
:1008A000CA6390F88200401E8041C043C00FF0BD73
:1008B000F0B5D0F89020D0F884309268D0F890400D
:1008C000B0F84C50B0F8806023F44013C0F8843086
:1008D000771B238A1FFA87FE73454FF480110BD2D2
:1008E000D0F890400323A0F846302579B0F8803046
:1008F000ED035B1E856718E0B0F84AC03F04A5EB26
:100900000C0CFF0B1FFA8CFC674502D2638AEB1AB2
:1009100008E05B199BB2B34204DBC3EB46034FF420
:1009200000115B1E2479E40384679BB2D0F89040E9
:100930006579D0F88440ED032143C567C0F8841081
:100940001364D0F890108968B0F848204A63B0F872
:100950004A308B63B0F84C20CA6390F88200401E86
:100960008041C043C00FF0BDF0B5D0F89020D0F862
:1009700084309268D0F89040B0F84C50B0F8806065
:1009800023F44013C0F88430771B238A1FFA87FEB4
:1009900073454FF480110BD2D0F890400323A0F898
:1009A00046302579B0F88030ED035B1E856718E08E
:1009B000B0F848C03F04A5EB0C0CFF0B1FFA8CFCF1
:1009C000674502D2638AEB1A08E05B199BB2B34217
:1009D00004DBC3EB46034FF400115B1E2479E403F0
:1009E00084679BB2D0F890406579D0F88440ED03DD
:1009F0002143C567C0F884101364D0F8901089684B
:100A0000B0F848204A63B0F84A308B63B0F84C2005
:100A1000CA6390F88200401E8041C043C00FF0BD01
:100A2000F0B5D0F89020D0F884309268D0F890409B
:100A3000B0F84850B0F8806023F44013C0F8843018
:100A4000771B238A1FFA87FE73454FF480110ED25D
:100A5000D0F890400323A0F846302579D0F8904094
:100A6000B0F88030ED0385675B1E65791BE0B0F858
:100A70004CC03F04A5EB0C0CFF0B1FFA8CFC674528
:100A800002D2638AEB1A08E05B199BB2B34204DB23
:100A9000C3EB46034FF400115B1E6479E4038467E3
:100AA000D0F89040A579D0F88440ED032143C56784
:100AB000C0F884109BB21364D0F890108968B0F825
:100AC00048204A63B0F84A308B63B0F84C20CA63C0
:100AD00090F88200401E8041C043C00FF0BD30B48A
:100AE000D0F89030DFF824249C68012180F882102F
:100AF000116801F00C0108291ED1116801F00C01E8
:100B00000C29FAD1D0F888109160D0F88830C2F85A
:100B10000831216A41F480512162D0F8841091603B
:100B2000D0F88430C2F80831816F9163C36FC2F886
:100B30003831543030BC704700291D88E2D1616AD9
:100B4000A942FCD3116801F00C010829DAD111681F
:100B500001F00C010C29FAD1D4E7D0F890100A7DED
:100B6000022A0BD14A6A8B6912049A610B6ACA691C
:100B700012049A61CA6A896A12048A61012280F8A1
:100B80008C20543070470146002091F88C20012AB7
:100B900003D10022402081F88C20704730B4D0F877
:100BA00090108A6890F85510002945D102F118017B
:100BB00000250C6824F0730444F060040C60146A8F
:100BC00044F001041462146A24F0040414625563AE
:100BD000D0F89040247D012C0DD10C6824F4E6441B
:100BE00044F480540C60136A23F010031362136AF8
:100BF00043F040030EE0022C0DD10C6824F4E644CF
:100C000044F400540C60136A43F010031362136A37
:100C100023F04003136251F8043F23F0730343F0C1
:100C200070030B60116A21F480711162116A21F462
:100C300080611162016FC1660FF299120FF2C91142
:100C4000426041610FF20922B149C2608160012214
:100C500080F8552030BC7047D0F8901090F855209F
:100C60008968012A00D0704730B401F11802146875
:100C700024F0730444F0600414600C6A44F001042E
:100C80000C62D0F89040247D012C03D10C6A44F012
:100C9000040404E0022C03D10C6A24F004040C6266
:100CA000B0F8804064084C63156825F4E64545F4C7
:100CB000C04515600B6A43F010030B62D0F890300A
:100CC0001B7D012B03D10B6A43F0400304E0022B90
:100CD00003D10B6A23F040030B62B0F880305B084D
:100CE0008B6352F8043F23F0730343F060031360F7
:100CF0000A6A42F480720A62D0F89020127D012ABA
:100D000003D10A6A42F4806204E0022A03D10A6A2B
:100D100022F480620A62B0F880205208CA637D49DA
:100D20007D4A416042617D49794AC160826000210B
:100D300080F8551030BC7047D0F89020B0F8803063
:100D400092685943090CA0F8481048F6FF71D3691E
:100D50000B40D361D36943F4C043D361B0F866104C
:100D6000B0F880305B1A1364B0F86830D363B0F821
:100D700048105163D0F8883069490B60D0F888C0BA
:100D8000C1F800C1136A43F480531362D0F8843071
:100D90000B60D0F884C0C1F800C1D0F8903093F84F
:100DA00005C04FEACC3CC1F830C0D0F8903093F881
:100DB00004C04FEACC3CC1F830C11169B0F84E20F4
:100DC000012A01F0010103D100220121A0F84E20E7
:100DD00008467047002280F882204A4B1A68006F4C
:100DE000A0EB4200484A904203DD47F6FF72904272
:100DF00000DB10460880488070470000000001407A
:100E00000C2004E000200140D0F8901089680022F6
:100E10004A636FF001030B610A69D307FCD54A6C82
:100E200042F400424A64D0F890100A7D022A0ED1A2
:100E3000CA6989698A61D0F890104A6A096A1204FD
:100E40008A61D0F89000C16A806A090481617047A4
:100E500030B4D0F8901089686FF001020A610B6914
:100E6000DC07FCD50A6101224A63B0F880305B1FC1
:100E70000B640A69D307FCD54A6C42F400424A6409
:100E8000D0F89020137D022B19D19369D2690C6A96
:100E900040F255552C4204D09A61D0F89020536A04
:100EA00005E012049A61D0F89020536A1B04126A7C
:100EB0009361D0F89020D36A926A1B049361184A18
:100EC000D0F888301360D0F88840C2F800410B6A2F
:100ED00043F480530B62D0F884101160D0F8843052
:100EE000C2F80031D0F890104B79DB031363D0F8CF
:100EF00090004179C903C2F8301130BC704700003E
:100F0000300000423C2001400180FFFF00200140F2
:100F10000F060008950300083B0500088905000836
:100F2000082001402DE9F0430446DFF8FC66DFF8B5
:100F3000FC76DFF8FC86DFF8FC96002086F8780067
:100F40000D46DFF8F416DFF8F406C6F8A410C6F86C
:100F50009C0081B0FFF718F900F096FB06F1C8007D
:100F600000F0C4FB384600F04DFCC6F88870DFF88E
:100F7000D006DFF8D076C6F88400384600F0A2FC30
:100F8000D6F88410DFF8C0063B46424600F00CFE5F
:100F9000D6F88810D6F884003A4600F071FE404634
:100FA00000F02AFFDFF8A486404600F02BFC4846FC
:100FB00000F028FCDFF89806C6F89400C6F88C808C
:100FC000C6F8909000F074FFDFF88806D6F8941009
:100FD000DFF88486C6F8A000C0F81011C0F80C61D4
:100FE000404601F015F8DFF87406C6F8A800C6F808
:100FF000988001F04FF8002000F094F9012086F865
:101000002400D6F8840000F0E4FE3061D6F88400B5
:1010100000F0DFFE009006F1AC01BDF80200B082E6
:10102000C6F880103346D6F8842006F1C80106F1D0
:10103000AC0001F037F8D6F8840000F0BAFE0146A3
:10104000D6F88000002201F037F8D6F88000206042
:1010500037640122D6F88810D6F88C00B162F062AD
:101060000020D6F8901031637063F0637064B06450
:1010700006F1C800D6F89C10B1633065D6F884102C
:10108000D6F89400F164B0650020D6F89810716528
:1010900030660021F165B066F0663067706706F172
:1010A0002800D6F8A0107166286086F8782001B074
:1010B000BDE8F08310B5DFF8704594F8780070B1A2
:1010C00000F00EF894F87800012804D1002000F018
:1010D000CBF901F033F9BDE8104001F0B4B910BD0F
:1010E00010B5DFF8444594F8780001281DD1B4F814
:1010F0007A0028B1B4F87A00411EA4F87A1004E00E
:1011000000F014F80320A4F87A00B4F87C0020B1B1
:10111000B4F87C00411EA4F87C10B4F87E0020B125
:10112000B4F87E00411EA4F87E1010BD30B581B029
:101130000022ADF800206946DFF80855DFF8E844E2
:10114000284600F049FCD4F8A00001F0DBF904F1D6
:10115000C80000F044FB122800F2E280DFE800F053
:101160000A4F8C188AAABCC5D6DBE0E0E058646D53
:101170002D394300DFF8D054284600F062FD0028E6
:1011800000F0CE800021284600F059FD0321C3E085
:10119000DFF8B454284600F050FD28B90121284654
:1011A00000F04DFD0121B7E0D4F89C00FFF7C5F930
:1011B0001420A4F87C001021AEE0B4F87C000028D4
:1011C00040F0AE80D4F89C00002101F098FA112183
:1011D000A2E0D4F89C00012101F091FA002800F06F
:1011E0009F80122198E0284600F0B4FB042104F10E
:1011F000C80000F081FA012840F0928031E0D4F874
:101200009C00FFF79AF91420A4F87C000D2183E0DC
:10121000B4F87C00002840F08380D4F89C000021C2
:1012200001F06DFA0E2177E0D4F89C00012101F065
:1012300066FA002874D00F216EE0012084F82400A3
:10124000DFF8EC13D4F8840000F02CFDDFF8F8038D
:1012500000F0B1FC022104F1C80000F04DFA0128B1
:101260005ED1002000F05EF8D4F89C00FFF78CF906
:1012700001B030BD05214FE0DFF8CC0300F0C2FC27
:1012800040B9D4F8840000F06BFD00212182608217
:1012900001B030BDD4F89C00FFF7B9F9D4F8840050
:1012A000012100F011FDD4F88400294600F0FAFC79
:1012B000072131E0002000F061F8062104F1C800A8
:1012C00000F01AFAD4F8840000F08EFDD4F8800003
:1012D00000F026FF01B030BDD4F8800000F020FF00
:1012E000002000F04BF801B030BDD4F89C00FFF7AF
:1012F0008EF9002000F016F8D4F8A00001F022FAD0
:101300004FF44870A4F87E00082105E0B4F87E0090
:1013100030B9092100E0002104F1C80000F0ECF927
:1013200001B030BD10B50FF258310FF25832BE4B3C
:1013300009681268262414FB00F41C4421606160D3
:10134000E1602161C4F816200021E183C4F81A206D
:10135000218403EB8004D4F88C0000F067FAD4F801
:101360009000002100F062FAD4F8840000F09EFCA6
:10137000D4F89C00BDE8104001F0BFB910B5262399
:10138000A94A13FB00F3D41894F8241039B902EBDE
:101390008002D2F8840000F0E3FCE083208210BDDC
:1013A00000B581B0A74800F004FB002000F00AF867
:1013B000012804D100220121A94800F0FBF90020F6
:1013C00001B000BD2DE9F0410746DFF85C8208EB73
:1013D000870484B0D4F8840000F066FC01F0F0F9D2
:1013E0000546D4F89C0002A901F0C8F8029801F063
:1013F00023FA0646294601F03FFA0190262010FB09
:1014000007F74744BDF90400B7F91010091AD4F8DA
:101410008C0000F016FAADF80000B7F91210BDF913
:101420000600091AD4F8900000F00BFAADF802009B
:101430000098C7F816000099D4F8A40001F0C8FB82
:10144000294601F049FA8046D4F89C00414601F053
:1014500097F8029939607E60019AFA60C7F81A809D
:101460003D8404B0BDE8F0812DE9F0410446DFF889
:10147000B88108EB8405D5F8980000F0DAFD06463F
:10148000D5F89C0001F05BF90643200004D1D8F8A0
:10149000940000F051FD064304EB440008EB4007C4
:1014A000F04382B2314607F1C80000F083F907F13A
:1014B000C80000F094F90A2803D00B280ED0BDE82C
:1014C000F081D5F89C0001F018F92046FFF72AFFBB
:1014D000D5F8A000BDE8F04101F034B9D5F89C0082
:1014E000BDE8F04101F009B910B54F4CD4F89C00AB
:1014F000FFF78DF804F1C800BDE8104000228021FC
:1015000000F058B970B4574881B04FF49031016081
:101510004FF40052026001604FF480430168009173
:101520004FF4A031009A016003600160202501683A
:1015300000914FF4C031009A01604FF40042026004
:101540000160802603680093009C474BC0F800347C
:10155000C0F80054C0F800344025D0F8003400939F
:10156000009C424BC0F80034C0F80054C0F800346E
:10157000D0F800440094009D3D4CC0F80044C0F8F1
:101580000064C0F800440825D0F800040090009CD6
:101590003848394CC0F80044C0F80054C0F8004442
:1015A000D0F800540095009E01600260016001685F
:1015B00000914021009A03600160036008220368E3
:1015C000009301230099C0F80048C0F80028C0F833
:1015D00000480224D0F8001800914FF00111009A41
:1015E000C0F80014C0F80034C0F80014D0F800248B
:1015F0000092009B214AC0F80024C0F80044C0F8C3
:101600000024D0F8002400920122009BC0F80018AA
:10161000C0F80028C0F80018D0F800080090009921
:1016200001B070BC70470000EC06002014010020DF
:10163000600200206C01002004040020CC01002086
:1016400098010020900200200803002040010020A3
:101650004C0300200000002024030020F0030020A1
:10166000B40700201C1C02402000010040000100C3
:10167000800001001C00024008000100020001007F
:1016800000000000000000001648174981B0026801
:10169000D20712D4036843F001030360026802F02A
:1016A00001020092009A0B6943F001030B6101688B
:1016B00049084900016001B0704708680A6822F0D3
:1016C000700242F020020A6000F070000A6942F0E5
:1016D00001020A610B6823F070031843086001B02F
:1016E000704700BF403802400400004000210170F4
:1016F000418081807047000010B403780022122BD3
:101700000DD8DFE803F0202749334347494B4D51BB
:101710000C0C0A2D2F313D3F41000C0048D003290D
:101720001CBF012907290BD0418841F0800141806D
:101730000A2B818841F08001818001D00A2101704B
:1017400010BC104670470C46032C31D0012C2DD113
:101750000122F4E7072918BF0D2929D00E2920E01E
:101760000E2914E00F2912E0022910E0072918BF02
:1017700010291DD0042918BF112919D0012910E002
:10178000112904E0122902E0042900E0052903D10F
:101790000122D4E706290BD0072902E0082900E03E
:1017A0000929BCD10122CAE70C0001D00C2CB6D10A
:1017B0000122C4E730B403465C889D8818780C4346
:1017C00024EA020229430A285A80998002D122B9C8
:1017D0000B2001E00AB10A20187030BC7047007875
:1017E0007047014600200A780B2A04D109200870AE
:1017F00000228A800120704701468888498840EA93
:1018000001407047018842888180C2800022018C9B
:10181000418482608262704781807047C1807047D6
:10182000B0F904007047B0F9060070478160704756
:10183000008B7047408B704741847047B0F922009D
:101840007047F0B4B0F90430B0F91450B0F9166034
:10185000B0F9062000244B430AB9002115E051439A
:1018600082688F1806D5002AC8BF002906DD6FF0F0
:10187000004703E0002A44BF0029114FC168B94264
:1018800003DB0169B942B8BF3946878B81603B41B0
:10189000C78B0A4642FA07F1CB189D4206DAEC1ACA
:1018A000A4182B46846018B2F0BC7047B342BCBF8A
:1018B000F41A3346A418846018B2F0BC70470000D4
:1018C0000100008070B402460021106A41624FF0AE
:1018D000FF33D18AB3FBF1F111674CF6CD41538B45
:1018E0005943C90CA2F874106FF001040461C16877
:1018F00041F00101C160036843F00103036000236C
:10190000107F002823DD10F0030108D002F12C0520
:101910000024DEB25B1C45F82640491EF6D1800843
:1019200000F0158002F12C040021DDB244F82510EE
:101930005B1CDDB244F825105B1CDDB244F82510B9
:101940005B1CDDB25B1C44F82510401EEAD170BC64
:101950007047000030B4017F002229B300F12C0150
:101960000023D4B241F82430521C017FD5B28D42FD
:101970001AD200F12C04521C44F82530D1B2037F56
:10198000994211D20021D5B244F82510521C017F92
:10199000D3B28B4208D20023D5B244F82530521C72
:1019A000037FD1B29942D9D3012180F8261030BCEF
:1019B00070470146086A426A086F4243C87A50433A
:1019C000C31300EB13404FEAE23C001402EB1C424D
:1019D000088012144A8070472DE9F041066A057F9D
:1019E000746A878C002282840023366806F0100C0B
:1019F000022F24BF012680F87660B0F828E0C78A5D
:101A0000BCF1100FA4EB0E060BD1A6456CEB0C0C31
:101A10004FEADC7C90F86C8000F12C0E07FB1C6612
:101A20000AE074456CEB0C0C4FEADC7C90F86C809F
:101A300000F12C0E07FB0C664EF82860002D20DD0F
:101A400000F12C06D7B256F827603344521CD6B2A8
:101A5000AE4216DA00F12C07521C57F82660F31834
:101A6000D6B2AE420DDA57F82660F318521CD6B241
:101A7000AE4206DA57F82660F318521CD6B2AE42D0
:101A8000DEDB428BC58A5343027F554393FBF5F25D
:101A90000A8083888280D31A038100F12C0390F896
:101AA0006C2053F82250B0F87430C27A04855D433C
:101AB000C38A554395FBF3F3828AC3EB034393FB3D
:101AC000F2F2C28090F86C20521C80F86C2090F8E2
:101AD0006C20037F9A4204BF002280F86C2090F8AB
:101AE00076203AB1037C8372002180F826100846E4
:101AF000BDE8F08100F06AFE01460846BDE8F081CD
:101B0000026AC08ADFF818C00B0048BF491E89B2BC
:101B10004143A1FB0CC35900090C516270470000FE
:101B200001800080818C491C818400207047F0B4C2
:101B30000246106895681318506803EB5004C007FC
:101B40001DD54D441BE013F8017B05F8017B491EB0
:101B5000F9D1A0B1B60813F8011B06F00306032E55
:101B600008BF13F8016B01EB06214942801C294490
:101B700005D011F8016B05F8016B401EF9D1A342A5
:101B80000ED013F8016B16F0030104BF13F8011B0C
:101B9000C91C30090F28DAD113F8010B0F30D6E732
:101BA000F0BC02F10C0070470160426000218360CC
:101BB0008173C173704710B504460022606800212C
:101BC00000F039F9B4F91410606800F02DF92068BC
:101BD000002100F079F820680022002100F078F858
:101BE000E28AB4F91210206800F072F8E18A208AC3
:101BF000034B4143A1FB0332520A521CA28110BD88
:101C0000986E128330B5044681B0A089012588B151
:101C1000401EA08180B260B9B4F91400217E90FB0F
:101C2000F1F1A06809B2FFF76BFFA573284601B078
:101C300030BD0025284601B030BD807B7047C173A0
:101C40007047C07B704730B4002513E050F8042B78
:101C5000D30744BFA9F101039A18091F042942F8C8
:101C6000045BFAD213468C0744BF15809B1CC9073E
:101C700048BF1D7050F8041B0029E7D130BC7047E5
:101C80000161426190F82A100170B0F92C20B0F97E
:101C90002E10120442600904002281604280C2605A
:101CA000826170474161704740697047017801293E
:101CB00003D100690021FFF7B9BD70474068C11327
:101CC00000EB11400014704701700021C1607047A3
:101CD000F0B4047801230D46D4B98668F71306EBF7
:101CE0001746C78C3614AF42B0F92870B8BF00232E
:101CF000B9421DDB1F002DD0F2B92D04012C0CBF01
:101D0000456085600021C16082611846F0BC704763
:101D10004668C78B3614AF42A4BFB0F92470B942ED
:101D200006DB078CBD42BCBFB0F922708F42E3DAFC
:101D3000F0BC0023184670474180AD1B818B074FD4
:101D40004A43A2FB0774610A491CC1602D0495FB3C
:101D5000F1F181611846F0BC70470000986E128363
:101D600070B504462078E26800280CBFA568656855
:101D7000012A04D9A169521E4D19E26005E004D17F
:101D8000B4F9025000212D04E160EA1305EB12467C
:101D9000361401280AD1606900F015FD361A206951
:101DA00031B2FFF74EFD656006463504A56030464A
:101DB00070BDB0F92C007047C08B7047B0F924009B
:101DC0007047014600200A78012A04BFC86001203C
:101DD000704781B0B0F92E10ADF80010008EADF84C
:101DE0000200009801B0704710B50446606900F029
:101DF000EAFC0004606010BD0021817200220280B4
:101E00004180818001818161018480F82410C28039
:101E10008272C261028580F8252080F82A2080F82D
:101E20002B20C18DC1847047C37A018591FBF3F3E8
:101E3000438001807047134690F82420002A00D088
:101E40007047F0B40C041D000FD1828A818002EB30
:101E500082035B0094FBF3F3C47A418413FB04F424
:101E6000C48000220284F0BC7047828D878A0F4EA6
:101E700041845343A3FB0665B0F9066007EB870274
:101E80006B0AC57A52005B1C94FBF2F496FBF5F2E8
:101E9000038424B212B2A41A24049BB294FBF3F379
:101EA0005D4336048561C661F0BC7047986E12834D
:101EB00010B5044604F10C0000F0C0F984F83400B9
:101EC0002046BDE8104000BF30B4418B828B5218D1
:101ED000018B5208002339B300F11E049DB224F88F
:101EE00015205B1C048B99B2A1421DD200F11E018A
:101EF0009DB221F815205B1C018B9CB28C4213D241
:101F000000F11E049DB224F815205B1C048B99B2CD
:101F1000A14209D200F11E019DB221F815205B1CDF
:101F2000018B9CB28C42D7D300218280C28080F882
:101F3000331030BC70470000F0B5044681B094F80F
:101F4000340000F0D1F94FF6FF72904201463FD0C5
:101F500004F11E0094F8332020F812100022208B88
:101F6000002338B304F11E05DEB235F8160012184E
:101F70005B1C208BDDB285421CD204F11E075FFA88
:101F800083FC37F81C505B1C5219DEB2864211D21A
:101F90005FFA83FC37F81C505B1C5219DEB2864294
:101FA00008D25FFA83FC37F81C505B1C5219DEB272
:101FB0008642D7D3B2FBF0F0E080A180228B94F868
:101FC0003300521E9042B4BF401C002084F83300FE
:101FD000204600F003F8208101B0F0BDC188428B9B
:101FE0008A4201D202207047808B814201D20420B4
:101FF000704700207047018A428B8A4201D2082034
:102000007047828B914201D200207047C08A70478E
:1020100010B50446207838B9201D00F00FF984F877
:1020200026000020208210BD608A20820021E182EB
:1020300010BD10B504462078A8B994F8260000F029
:1020400053F94FF6FF71884207D0218B238A4A1E2D
:1020500003FB0200B0FBF1F020822046FFF7CBFF2C
:10206000E082E08A10BD0020E082E08A10BD0178A5
:1020700069B9018A026A8A1AB0F91E10808C4A4333
:10208000D31302EB134200EB224000B27047808A68
:1020900000B270470021416041808160C160012130
:1020A0000161704701604260002183600173C1815A
:1020B0000182C1820176704701230373C181C2820C
:1020C0000376437670470182C282022301210022F7
:1020D000037301764276704702B403210173BDF8A1
:1020E000002042820122BDF8021081820276002186
:1020F000417601B0704710B5044603212068FFF710
:10210000FBFA012808BF207610BD00680721FFF701
:10211000F3BA0068FFF765BB00680121FFF7ECBA6E
:1021200010B5040030D0207E01282DD1217B002065
:10213000012904D00FD303291BD00FD30BE0A268D1
:1021400082F824006068FFF7BFFDE28AB4F90E1040
:102150006068FFF7BDFDA8B1022014E0A06800216F
:1021600080F824106068FFF7AFFDE28AB4F9101020
:10217000EEE7A068012180F82410D4F81220026153
:10218000022000E00320207610BD0068FFF727BB87
:10219000407E7047014600200A7B012A08BFB1F942
:1021A0000E0070474068FFF70CBE00B581B0406874
:1021B000FFF77AFD01B05DF804EB00F004BB406866
:1021C000FFF77CBD81B0806801680091084601B0CE
:1021D000704781B0806841680091084601B070473F
:1021E00081B08068C1680091084601B0704781B035
:1021F000806801690091084601B0704781B080682D
:10220000D0F816100091084601B0704781B0806880
:10221000D0F81A100091084601B070478068B0F9F4
:102220001E007047806841828182704710B5044665
:102230006068FFF7CEFDA168086110BDF0B40146EB
:102240000E790B68504CFF225FF0000504F124006A
:10225000EFB250F8270018B9D7B2042FC8BF2A46EA
:102260000779B74201BF006898422A4604256D1CD1
:10227000E8B20428EADBD0B2042832DA04F12405FB
:10228000002645F8201044F830609868C00703D451
:102290009C6844F001049C60D86A20F47000D86205
:1022A00008790A2806D200EB400440EA045040F0C6
:1022B000007005E0A0F10A0404EB440440EA045075
:1022C000C40D0C3304F00404E318000D89681C6885
:1022D00000F01F0007258540AC4301FA00F02043C1
:1022E0001860D0B2F0BC7047274901EB8000406A0B
:1022F00001790A2906D201EB410241EA025141F07B
:10230000007105E0A1F10A0202EB420241EA02512A
:1023100002682C3252F8083F61F304031360012372
:102320000168CA6C194A083102EB41121360016856
:102330000A689207FCD5C86C80B2704730B5124C61
:1023400094F82100012881B01BD194F82000FFF7F8
:10235000CBFF022194F8203084F8211060841D46C0
:1023600054F8351069B1002284F8212004EBC5012E
:102370004A680146184654F8353001B0BDE830408F
:10238000184701B030BD0000180900207800004255
:102390002DE9F04F0446DFF80C914348DFF80CA11B
:1023A000C9F8CC000D4616461F4683B0BAE80E5851
:1023B000DDF83080A0E80E58BAE80E58A0E80E58B4
:1023C000303800943B463246294600F02DFCD9F8BF
:1023D000CC0000F062FFD9F8CC002322002100F0ED
:1023E00066FFD9F8CC002422012100F060FFAAF199
:1023F000300AC9F8D090BAE80F50A9E80F50BAE8EF
:102400000F50A9E80F50A9F13009DFF8A4A05046F9
:1024100000F05CFFD9F8CC002649274B274A0190F1
:102420000091CDF808805146D9F8D00001F078F835
:10243000D9F8D00000943B463246294600F0F4FB20
:1024400003B0BDE8F08F1E49088810B10A88501EFD
:1024500008804A88022A02D34888421E4A80888817
:10246000022802D38888421E8A80704730B50D4DFD
:102470000446D5F8CC0081B000F0E3FBA04206D1C1
:10248000D5F8CC0001B0BDE8304000F00BBF01B082
:1024900030BD0B4900204880704709494F204880D3
:1024A0007047000018060020B403002084030020B9
:1024B000B80400200D350008633400088934000892
:1024C0001006002000B581B001F0A0FA20B901B0DB
:1024D0005DF804EB01F092BA01B05DF804EB01F095
:1024E00091BA084480F830207047084490F83000D2
:1024F000704700EB41004286704700EB4100B0F9A5
:1025000032007047F0B5044681B0D4F80C01194F81
:10251000B0F90E20B0F90C10B0F91630B0F918006F
:1025200012FB00F6D4F8100111FB03F501F074FA68
:102530007519114AE91305EB1145D4F80811484300
:1025400080FB023290112D1400EBD070454305EB57
:102550004506750001B085FB07C7B91001EBD171C5
:10256000C81301EB10412046BDE8F040091400F00B
:10257000F5B800BF67666666B5814E1B42681047B6
:1025800070B481B002B481B0B0F86020BDF90650DB
:10259000BDF90440B0F8441055436D424C436D0002
:1025A00063192C1B03EBD37304EBD4745B1064101E
:1025B0009208002B39D5002C12D51D1B6E1405EB8B
:1025C00096351E1402EBA54203EBD633251404EB1B
:1025D000D534A2EB6345836A042102EB64445DE0D9
:1025E0002914002D05EBD1360FDC2D1B6B1405EBE8
:1025F000933502EBA542251404EBD53402EB644479
:10260000436A0321A4EB664548E05D1B6C1405EBAF
:10261000943502EBA5421D1403EBD533A2EB6345C1
:10262000036A022105EB664438E0002C12D41D1B1E
:102630006E1405EB96351E1402EBA54203EBD63360
:10264000251404EBD534A2EB6345C369012102EBE9
:10265000644423E02914002D05EBD1360FDC5D1B0B
:102660006C1405EB943502EBA5421D1403EBD53336
:10267000A2EB6345C36A052105EB66440EE02D1B02
:102680006B1405EB933502EBA542251404EBD5340E
:1026900002EB644483690021A4EB6645A0F8461070
:1026A000A0F84820A0F84A40A0F84C50B0F85C10C0
:1026B00001291FD1B0F95640B0F84810B0F85E209B
:1026C000002CCCBF5118891AA0F84810B0F9584016
:1026D000B0F84A10002CCCBF5118891AA0F84A1043
:1026E000B0F95A40B0F84C10002CCCBF52188A1ADE
:1026F000A0F84C2003B070BC18478168084730B57B
:1027000004460025080081B008D1A168204688470A
:10271000B4F86200A4F8520070B909E001290BD1A5
:10272000B4F8520038B1401EA4F8520080B218B973
:102730002169204688470125284601B030BD016B3C
:102740000847000010B504464FF4807101F06AF9A3
:102750000022A4F80021A4F8022110BDF0B4024622
:102760000023B2F8000122F81010B2F80001B2F80C
:102770000041A2F80241401CA2F80001144680B2B8
:10278000802828BFA2F800315FF0200034F9025BF6
:1027900034F9026B34F9027B5B199B1934F9025B43
:1027A000DB19401E2B44F1D1981103EB5063DB1170
:1027B000A2F804310846F0BC7047B0F90401704734
:1027C000B0F900007047B0F9040070470122F0B47E
:1027D0000025495F037C847A0E0048BF4942868900
:1027E0008FB2BE42C68938BF012589B2B142B0F965
:1027F000081038BF01250E0048BF4942468A89B2F9
:102800008E4200D31DB19C4204DA641C02E09C425B
:10281000B8BF0024E1B2994208BF0022847210467A
:10282000F0BC7047B0F90410B0F90C00C1EBC13135
:1028300091FBF0F000B2704701B481B044F6E612AB
:10284000BDF90400ADF8000001465E4811FB00F040
:10285000BDF9061011FB02F2A0EB4200C01300F319
:102860000F00ADF8020010F5004F04BF5649ADF857
:102870000210009802B0704771B583B008B200F042
:102880004BF80190BDF90420BDF90C30BDF90600EC
:10289000BDF90E1013FB02F400FB1144E41304F322
:1028A0000F04ADF8004013FB00F0BDF90050474C99
:1028B000A54204BF444EADF8006011FB0200C013F6
:1028C00000F30F00ADF80200A04204BF3E49ADF88E
:1028D0000210009804B070BD31B582B008B200F0AB
:1028E0001BF80190BDF90430BDF90840BDF9061090
:1028F000BDF90A2014FB03F512FB03F012FB01558E
:1029000001FB1401ED13C913ADF80050ADF802102E
:10291000009803B030BD0000A0F500410904890D06
:1029200011F4407081B028D0B0F5807F38D0B0F578
:10293000007F05D0B0F5407F12D0009801B07047FD
:1029400023A0CAB230F81230ADF80230C1F1FF0155
:10295000C9B230F91100ADF80000009801B070471D
:102960001BA2C1F1FF00C0B232F81030ADF8023046
:10297000C9B232F9111049421EE000BF14A0CAB218
:1029800030F912305B42C1F1FF01ADF80230C9B23B
:1029900030F911004042ADF80000009801B07047D6
:1029A0000BA2C1F1FF00C0B232F910305B42ADF8AA
:1029B0000230C9B232F91110ADF80010009801B020
:1029C000704700001AB6FFFF0180FFFF0080FFFF85
:1029D0000000C90092015B022403ED03B6047F05E9
:1029E00048061107D907A2086A09330AFB0AC40B73
:1029F0008C0C540D1C0EE30EAB0F72103A11011229
:102A0000C8128F1355141C15E215A8166E1733182B
:102A1000F918BE19821A471B0B1CCF1C931D571E99
:102A20001A1FDD1F9F2061212322E522A623672490
:102A30002825E825A82667272628E528A329612A2E
:102A40001F2BDC2B992C552D112ECC2E872F41308E
:102A5000FB30B5316E322633DF3396344D350436D4
:102A6000BA366F372438D9388C39403AF23AA53B18
:102A7000563C073DB83D683E173FC53F7340214176
:102A8000CE417A422543D0437A442445CD4575460C
:102A90001C47C34769480F49B449584AFB4A9D4BF4
:102AA0003F4CE04C814D204EBF4E5D4FFB4F975049
:102AB0003351CE51685202539B533254C95460551E
:102AC000F5558A561D57B0574258D3586459F35993
:102AD000825A0F5B9C5B285CB35C3E5DC75D4F5EBA
:102AE000D75E5D5FE35F6860EB606E61F0617162AD
:102AF000F1627063EE636C64E8646365DD6556667D
:102B0000CF664667BC673268A66819698B69FD693C
:102B10006D6ADC6A4A6BB76B236C8E6CF86C616D06
:102B2000C96D306E966EFB6E5E6FC16F22708370E2
:102B3000E27040719D71F9715472AE7207735E73E9
:102B4000B5730A745F74B27404755575A575F37521
:102B500041768D76D87622776B77B377FA773F78A0
:102B60008478C77809794A798979C879057A417A68
:102B70007C7AB67AEE7A267B5C7B917BC57BF87B90
:102B8000297C597C887CB67CE37C0E7D397D627D16
:102B9000897DB07DD57DFA7D1D7E3E7E5F7E7E7E09
:102BA0009C7EB97ED57EEF7E097F217F377F4D7F6A
:102BB000617F747F867F977FA67FB47FC17FCD7F43
:102BC000D87FE17FE97FF07FF57FF97FFD7FFE7F92
:102BD00002B481B00091BDF90420BDF90610B0F82F
:102BE00000C012FB02F311FB01330CFB0CFC9C45F3
:102BF00016D200F1020C90F8B0001B0E1B1ADBB2CB
:102C00003CF81300424341439313881302EB5342B1
:102C100001EB5041D213C913ADF80020ADF80210FA
:102C2000009802B07047000081B0DDF804C0017761
:102C300002620021436280F82C10C0F828C001B065
:102C4000704790F82C00704770B5164682B0046A41
:102C5000426A90F82C3054F8235052F82320012473
:102C6000E1B1032923D0052937D0062938D0072917
:102C700039D008293AD009293FD00A2940D00B2958
:102C800041D00C2942D00D294DD00E2952D00F2908
:102C900057D041295CD05B2961D06EE0027FF1B250
:102CA00091426AD280F82C60204602B070BDF0B22A
:102CB00050B92846FFF7B2FA014600222846FFF72E
:102CC00002FA204602B070BDF6B2012E56D1284657
:102CD000FFF775FA0022014649E0106831B224E09E
:102CE000106831B228E0106831B22CE02846FFF7B6
:102CF0007EFA0090ADF800600EE0506831B214E04A
:102D0000506831B218E0506831B21CE02846FFF735
:102D10006EFA0090ADF8026028460099FFF7DCF9E2
:102D2000204602B070BD906831B2FEF775FD2046B6
:102D300002B070BD906831B2FEF770FD204602B05F
:102D400070BD906831B2FEF777FD204602B070BDCD
:102D500031B22846FFF766FA204602B070BDDFF8B0
:102D6000880486FB001000EBD071002209B22846CF
:102D7000FFF7A2F9204602B070BD0024204602B041
:102D800070BD000030B5024681B0506A92F82C4008
:102D900050F82430106A50F8245081294FF0FF3049
:102DA00000F2C381DFE811F0820085008B00910002
:102DB00097009900A100A900AB00B300B500B700CF
:102DC000B900C100C700CD00C101C101C101C101ED
:102DD000C101C101C101C101C101D300D900DF009E
:102DE000E500E700ED00F500FD00C10105010B0164
:102DF00013011B012301F500FD002B0133013B01F1
:102E000043014B0153015B017201C101C101C101C9
:102E1000C101C101C101C101C101C101C101C101A2
:102E2000C10189018E0196019E01B900C101C10154
:102E3000C101C101C101C101C101C101C101C10182
:102E4000C101C101C101C101C101C101C101C10172
:102E5000C101C101C101C101C101C101C101A6017D
:102E6000C101C101C101C101C101C101C101C10152
:102E7000C101C101C101C101C101C101C101C10142
:102E8000C101C1019B00A300BA01C101BD01C00184
:102E9000C101C101C101C101C101C101C101C10122
:102EA000C101C101C101C101C101C001204601B080
:102EB00030BD986A01B0BDE83040FEF79DBC986A0D
:102EC00001B0BDE83040FEF78ABC284601B0BDE83D
:102ED0003040FFF75DB9284619E1186826E0186808
:102EE00001B0BDE83040FEF7A3BC186824E01868C4
:102EF00001B0BDE83040FEF79DBC186822E02846CE
:102F0000FFF775F90090BDF9000001B030BD5868B9
:102F10000CE0586810E0586814E02846FFF767F99D
:102F20000090BDF9020001B030BD986801B0BDE865
:102F30003040FEF775BC986801B0BDE83040FEF740
:102F400072BC986801B0BDE83040FEF777BC186BE2
:102F500001B0BDE8304000F05FBDD86A01B0BDE807
:102F60003040FFF784B8D86B01B0BDE83040FFF7C0
:102F700024BC002100E0012101B0BDE83040104632
:102F80009AE12846FFF711F900EB4001480001B033
:102F900030BD2846FFF724F90090BDF9000001B0CC
:102FA00030BD2846FFF71CF90090BDF9020001B0C2
:102FB00030BD586901B0BDE8304000F05DBD284625
:102FC000FFF700F90090BDF9000001B030BD2846C0
:102FD000FFF7F8F80090BDF9020001B030BD2846B7
:102FE000FFF7F7F80090BDF9000001B030BD2846AA
:102FF000FFF7EFF80090BDF9020001B030BD2846A0
:10300000FFF7F5F80090BDF9000001B030BD28468B
:10301000FFF7EDF80090BDF9020001B030BD284681
:10302000FFF7ECF80090BDF9000001B030BD284674
:10303000FFF7E4F80090BDF9020001B030BD28466A
:10304000FFF7E4F80090BDF9000001B030BD28465C
:10305000FFF7DCF80090BDF9020001B030BD916AC5
:1030600051F824200021140F022C14BF012C99695F
:10307000C2F30362022A14BF012AD969002954D07D
:1030800001B0BDE830400846FFF79ABB916A51F89D
:1030900024400021220F022A14BF012A9969C4F397
:1030A0000362022A14BF012AD96900293DD001B068
:1030B000BDE830400846FFF7B5BB1369002B33D09D
:1030C000002102E013697BB3012101B0BDE830406B
:1030D00010461847586AFEF76FFE00EB40014800A3
:1030E00001B030BD586AFEF769FE00EB40014800B0
:1030F00001B030BD2846FFF74BF80128284606D11D
:10310000FFF748F800EB4001480001B030BDFFF781
:1031100056F800EB4001480001B030BD334801B023
:1031200030BD042001B030BD002001B030BD000032
:1031300030B581B0026A90F82C000124491E52F883
:1031400020500D2939D8DFE801F007090B3939166D
:10315000262C323838383809284612E0284615E03F
:103160002846FFF712F8062828D12846FFF71AF854
:10317000204601B030BD2846FFF707F80028284652
:1031800004D1FEF7B8FF204601B030BDFEF7BDFF09
:10319000204601B030BD2846FEF7BBFF204601B0F7
:1031A00030BD2846FEF7B8FF204601B030BD2846A6
:1031B000FFF73CF8204601B030BD0024204601B0A6
:1031C00030BD30B581B0056A074B81FB034303EB8B
:1031D000D37190F82C3055F8230009B2FEF76CFF3C
:1031E000012001B030BD0000ABAAAA2A7A84A6341F
:1031F0002DE9F04381B08846416A90F82C0051F8DF
:1032000020104C69164699460125A4B1089F4146F5
:10321000204600F01DFC30804146204600F01EFC98
:10322000A9F800004146204600F01FFC388001B09C
:103230002846BDE8F0830025284601B0BDE8F083AC
:10324000F0B50C461D4681B0416A90F82C0051F84B
:1032500020305F69BDF918602146384600F0E6FB72
:103260002A462146384600F0E7FB324621463846DA
:1032700000F0E8FB012001B0F0BD82B0ADF8001015
:10328000ADF80220026A90F82C30009952F8230021
:1032900002B0FEF721BF002070474169002918BF26
:1032A000084770478169002918BF0847704743687D
:1032B000002B18BF1847704700B581B08368832280
:1032C0000BB198470246104601B000BD00F0D7BBD5
:1032D00030B50546ADF1040D95F81C018DA400280C
:1032E0006CD095F81D01020002D001280ED017E025
:1032F00085F89910288A95F81D11688211F101014D
:1033000085A485F81D11204601B030BD95F81D013A
:1033100085F89A10401C85F81D0101B0204630BD8B
:1033200095F89A20921C90420ADA05F199031954F3
:1033300095F81D01401C85F81D0101B0204630BDE7
:103340000020688285F81B115FF00002D5F820018B
:1033500072A4C16821F02001C16085F81C2105F12B
:10336000990000F0ACFB95F81B1188420BD195F841
:103370009A3095F89910286805F19B02AD68A84726
:10338000204601B030BD95F89700B8B9FF212975E6
:10339000012068750A21A97505F1140000F08FFB62
:1033A00085F896000121002085F8980085F897108F
:1033B000D5F82001C16841F08001C160204601B00C
:1033C00030BD014691F8970060B391F89800020073
:1033D00002D0012802D003E0087D0AE0487D08E021
:1033E0004A7D921C9042BABF01F11403185C91F817
:1033F0009600D1F8202150604A7D91F89800921CE7
:10340000904203DA401C81F898007047D1F82001FF
:10341000C26822F08002C260002381F897300868F9
:1034200049680847704710B5044694F89700B8B942
:10343000FF212175012060750821A17504F1140098
:1034400000F03DFB84F896000121002084F89800EC
:1034500084F89710D4F82001C16841F08001C16060
:1034600010BD90F81C1169B90022012180F81D21BE
:1034700080F81C11D0F82001C16841F02001C16022
:10348000022070470120704730B5044681B094F89F
:103490009700C0BB180004F11605217563751DD097
:1034A00013F0030000F0068012F8011B05F8011B61
:1034B000401EF9D19B0811D012F8010B05F8010B41
:1034C0005B1E12F8011B05F8011B12F8010B05F831
:1034D000010B12F8011B05F8011BEDD104F11400DA
:1034E00000F0EDFA84F896000121002084F898009D
:1034F00084F89710D4F82001C16841F08001C160C0
:10350000022001B030BD012001B030BD002180F8A3
:103510001C117047000000000100000002000000C4
:10352000F0B581B0044608461546069F0799089AEB
:10353000C4F8C4102063C4F8C0201E460FF2210155
:103540000FF23D030FF235020091214600F0ACFA74
:103550006563A663E763204601B0BDE8F04000E084
:1035600000BF10B50446206BE16B8847802084F8CB
:10357000C800A16B206BBDE810400847F1E70000D0
:103580002DE9F04188465FEA58158AB00446164690
:103590001F461AD06D1E2A460021FFF755FB58B969
:1035A0000B208DF80400012301AAFF21206B646B1E
:1035B000A0470AB0BDE8F081D4F8C40008F01F08A5
:1035C00018B12A460021FFF73FFBB8F10C0F00F2BB
:1035D0000F82DFE818F00D000E008D001C010D02B7
:1035E0000D02240166017901A601C601D401E5019D
:1035F000D9E7317805207E298DF8040000F2768025
:10360000DFE801F040747458746464646464646452
:103610006464646469697474646464646474747410
:103620005A61747474747474747474747474747487
:10363000747474747474747474747474747474744A
:10364000747474747464747474746969697474746B
:1036500074747464747474646464646464647469B5
:10366000747474747464747464647474747474744A
:10367000747474747474747458696969696974745D
:10368000746969007578D4F8C4002A460021FFF7F0
:10369000DBFA2A4600212046FFF7D6FA00283FF43D
:1036A00082AF00230022206B646BF021A0470AB098
:1036B000BDE8F0817278EEE772780021D4F8C4009A
:1036C000FFF7F5FDEDE772780121F7E77078B27842
:1036D00000EB0222DFE77078B278337900EB022248
:1036E000F07802EB004202EB0362D4E7022058E7D5
:1036F0003178032082298DF804003FF654AFDFE8CB
:1037000001F0437A43437A6E6E6E6E6E6E6E6E6E2D
:103710006E6E6E6E6E6E6E6E6E6E6E6E6E6E4F5DF9
:103720007A6E6E6E434242424242424242424242BC
:103730004242424242424242424242424242424269
:103740004242426E424242427A7A7A6E6E6E6E43D4
:103750007A6E6E6E6E6E6E6E6E6E6E6E437A426EC8
:103760006E6E6E6E42426E6E43437A7A7A7A7A4316
:103770006E6E7A426E6E437A7A7A7A7A7A7A7A7A48
:103780007A7A434243000EE72046FFF7FBFA10F136
:10379000010F00903FF407AF01236A46F02105E7CF
:1037A000D4F8C40000283FF4FEAE0021FFF784FDEA
:1037B0008DF8000001236A46F021F7E6D4F8C40032
:1037C00000283FF4F0AE0121FFF776FD8DF80000F0
:1037D00001236A46206B656BF021A84761E720460C
:1037E000FFF7D0FA10F1010F00903FF4DCAE022396
:1037F0006A46F021DAE62046FFF7C4FA10F1010F1D
:1038000000903FF4D0AE04236A46F021CEE6317832
:1038100007208DF804002046FFF78AFC3EE702A847
:1038200000210022002300252EC02EC0D4F8C02085
:103830001278092A02A821D0C27001210DF10B03D0
:10384000D4F8C020525C092A18D05A54491CD4F824
:10385000C020525C092A11D05A54491CD4F8C02007
:10386000525C092A0AD05A54491CD4F8C020525C30
:10387000092A03D05A54491C1D29E1DBD4F8C02081
:10388000531D5D5C8DF80850D4F8C0200A44D379EC
:103890004370D4F8C020114402AA4B7A83702023CD
:1038A00098E730797179F37800EB012230787178FC
:1038B00000EB0121B07801EB004192B201EB036112
:1038C0002046FFF77EFCE9E60DF1060000900DF1C1
:1038D0000A03317802AA2046FFF78AFCBDF90A00E4
:1038E00000EB4001480003A902128DF80C004A7059
:1038F00003140016BDF90620C8701212BDF80600A8
:103900004A7108718B700823BDF80820BDF80800C3
:103910008871120ACA71206B656B03AAF021A8474F
:1039200041E67079B17900EB012212B20092707811
:10393000B17800EB0122F078317902EB004202EB22
:1039400001622C48F17982FB003000EBD073307AB1
:1039500001EB002231781BB292B22046FFF770FCD7
:103960009CE6B078F17800EB01223078717800EBBA
:10397000012112B209B22046FFF77FFC91E60C212B
:103980008DF8041002968DF80C7002A81A4D294685
:10399000FFF781FC00283FF406AE2B792A6882E607
:1039A000002202A9D4F8C000805CB0B18854521C37
:1039B000D4F8C000805C80B18854521CD4F8C00098
:1039C000805C002809D08854521CD4F8C000805C68
:1039D00018B18854521C202AE4DB202A05DA02A8F8
:1039E000C2F12001104400F01DF8202302AAF1E6E4
:1039F0000120D6E5ABAAAA2A4C0900200548006898
:103A0000FEF779BB03480068FEF77FBB01480068FA
:103A1000FEF7BBBBF40500200146C888498848432F
:103A2000000C7047002200F079B8000001EB410360
:103A300000EB83008281704701EB410300EB8300C0
:103A4000C281704701EB410300EB830002827047A3
:103A500001EB410200EB82008089704701EB4102DB
:103A600000EB8200B0F90E00704701EB410200EB61
:103A70008200B0F91000704790F8480070470021AC
:103A800041820175417580F8961080F8971080F892
:103A9000981080F8991080F89A1080F81B1180F81F
:103AA0001C1180F81D11704781B030B1DDF804C0E1
:103AB000016042608360C0F80CC001B07047B0B4D0
:103AC000002138B342780178891889B20023F2B115
:103AD000821CDCB25B1C155D42784919DCB2944251
:103AE00015D2851CDFB25B1CEC5D2144DCB2944234
:103AF0000DD2DFB25B1CEC5D2144DCB2944206D2F5
:103B0000DFB25B1CEC5D2144DCB29442E0D30804DC
:103B100001EB1061B0BCC8B270470000401810F053
:103B2000030308D0C91A1FD3DB0748BF00F8012DD3
:103B300028BF20F8022D130030B414461546103962
:103B400028BF20E93C00FAD8490728BF20E90C002B
:103B500048BF40F8042D890028BF20F8022D48BF37
:103B600000F8012D30BC7047C91818BF00F8012DAE
:103B7000CB0728BF00F8012D7047000010B58CB0AE
:103B800000F092FA00F0E7F800200090DFF8D84447
:103B9000DFF8D804016841F010010160026802F00A
:103BA00010020092002200990092036843F0020381
:103BB0000360016801F0020100910099009203681E
:103BC00043F001030360016801F0010100910099D5
:103BD0000092036843F480730360016801F480710C
:103BE000009100990092036843F08003036001682C
:103BF00001F0800100910099009201210368DFF833
:103C0000702443F004030360006800F00400009097
:103C10000098DFF86004019102920021039101A94C
:103C200000F05EFA00F0EFF800F055F9DFF8480414
:103C3000E06704F17C0000F03FFB00B1FEE73C21AF
:103C40000222009101926946002204F17C0000F0FA
:103C500047FB00B1FEE71022694604F17C0000F04A
:103C60003FFB00B1FEE7002161644FF0804040F669
:103C70009F71E164206403210291002001210491DD
:103C8000A064062106912065012108910390062178
:103C90000590079009900A9104F1400002A900F0F4
:103CA00079FB00B1FEE700210091019104F1400091
:103CB000694600F0C3FD00B1FEE700F064F9DFF8EB
:103CC000BC0320604FF4E1310C2000226061616090
:103CD000A260E2602261A261E261204600F008FE7B
:103CE00000B1FEE700F060FF00220221122000F088
:103CF000AAFF122000F0D0FF002200212C2000F0AB
:103D0000A2FF2C2000F0C8FF012204212B2000F08C
:103D10009AFF2B2000F0C0FF002203211C2000F09E
:103D200092FF1C2000F0B8FF01220321252000F0A3
:103D30008AFF252000F0B0FF00220021062000F0BD
:103D400082FF062000F0A8FF4FF47A7000F0DCFF3D
:103D5000FFF754FEFEE700B593B0002000904FF44B
:103D60008033C748016841F080510160002100683C
:103D700000F0805000900098C2480091026842F420
:103D8000804202600122006800F48040009006A892
:103D90000099069202214FF480020C910D920421A9
:103DA000A8220E910F9202210422079310911192E2
:103DB00000F0C0FF00B1FEE7022102910022039251
:103DC0000F204FF4A051019004914FF480520592BE
:103DD000052101A801F058F900B1FEE701F0E2F970
:103DE00001F0E4F9A84AA0FB0221480A00F05DFFB7
:103DF000042000F06BFF002204214FF0FF3000F0A0
:103E000022FF13B000BDA1484FF48031002210B54D
:103E10009F4C2060012020616160A260A26122624B
:103E2000E26222634FF400619A48A06201220220FC
:103E3000E061E16062618EB0204601F00BFA00B1F2
:103E4000FEE70121059103220021069108924FF41B
:103E500060214FF480120B910C92062001210490F6
:103E6000002209910A92079204A9204601F054FB0E
:103E700000B1FEE7082104910222059204A9204620
:103E800001F04AFB00B1FEE70921049103220592EB
:103E900004A9204601F040FB00B1FEE70A21009191
:103EA00001220192032102910022039269462046D9
:103EB00001F0FBF900B1FEE70222019202920D210E
:103EC0000091002203926946204601F0EEF900B10C
:103ED000FEE70EB010BD70484FF4803110B56F4C46
:103EE000206001202061616000226A48A0624FF4D6
:103EF00000610120E0616061A260A2612262E26271
:103F0000E16022638EB0204601F0A4F900B1FEE723
:103F10000121019103220021029104924FF46021BA
:103F20004FF4801207910892062001210090002290
:103F30000591069203926946204601F0EDFA00B120
:103F4000FEE708210091022201926946204601F015
:103F5000E3FA00B1FEE709210091032201926946CC
:103F6000204601F0D9FA00B1FEE7062001210990B0
:103F70000A9100220B9209A9204601F096F900B19E
:103F8000FEE70EB010BD4648002130B5454C20601C
:103F9000616041F282402022E0600121A2604FF482
:103FA0008075616195B02561204600F0BFF900B1D0
:103FB000FEE7204600F0D4F900B1FEE7062110919B
:103FC0001022119210A9204600F0A8FA00B1FEE7D5
:103FD000002107910891204607A900F02FFC00B1AD
:103FE000FEE76020002100900191002203910591DD
:103FF0000292049206926946204600F015FA00B13A
:10400000FEE704226946204600F00EFA00B1FEE702
:1040100008226946204600F007FA00B1FEE7702149
:1040200041F287320091019269460C22204600F04D
:10403000FBF900B1FEE74FF480610A914FF4006094
:10404000102109900C9100220D920E920F920B9567
:1040500009A9204600F01DFC00B1FEE7204601F052
:1040600011FC15B030BD0000BC0700203038024004
:1040700000002110001002400074004000100140B8
:104080004038024000700040986E128300200140CA
:104090004C0800200100000F00210140940800207E
:1040A00000040140DC08002000B50C4881B0016824
:1040B00041F400710160026842F4806202600168AC
:1040C00041F480710160032000F0B0FD042001F094
:1040D00035FC01F0EBFA002001B000BD003C0240CD
:1040E0002DE9F04F03460C464FF0000881B0C14661
:1040F000C24666486649674A012505FA08FC2568F4
:104100000CEA050EE64540F0B3806568022D18BF45
:10411000122D12D14FEAD80503EB85050AF01C06D3
:104120002F6A4FF00F0B0BFA06FB27EA0B07D4F8A8
:1041300010B00BFA06F63E432E6203251E6827795F
:1041400005FA09F5ED4307F003072E4007FA09F7D2
:104150003E431E606668012E18BF022E03D0112E4A
:1041600018BF122E10D19E68E7682E4007FA09F793
:104170003E439E605E6826EA0C076668C6F300163A
:1041800006FA08F63E435E60DE683540A66806FA29
:1041900009F63543DD606568EE0069D500250095B8
:1041A0004FEA980C166846F4804616600F2615688C
:1041B00005F480450095009D51F82C700AF00C051F
:1041C000AE4027EA0606344FBB4208BF002723D083
:1041D000324FBB4208BF01271ED0314FBB4208BF40
:1041E000022719D02F4FBB4208BF032714D02E4FF0
:1041F000BB4208BF04270FD02C4FBB4208BF052786
:104200000AD02B4FBB4208BF062705D0294FBB421F
:104210000CBF0727082700BF07FA05F5354341F80B
:104220002C506FEA0E0C056866680CEA0505F7036A
:1042300048BF4EEA05050560456866680CEA050555
:10424000B70348BF4EEA05054560856866680CEA15
:104250000505F70248BF4EEA05058560C568666832
:104260000CEA0505B60248BF4EEA0505C0F80C5039
:1042700008F10108B8F10F0F0AF1040A09F1020967
:104280007FF63AAF01B0BDE8F08F0000003C01407E
:104290000838014044380240000002400004024057
:1042A00000080240000C02400010024000140240CE
:1042B00000180240001C024010B5040001D101208A
:1042C00010BD207920B900216171204601F078FAF3
:1042D000022020710021216101202071002010BDE9
:1042E00070B44379012B08BF02201CD00123437115
:1042F0000224047140F6FE7503681C680E68496864
:1043000095400E43AC43964034431C60C024016882
:104310000B6804FA02F223EA02020A600121017129
:1043200000224271002070BC7047000010B50400EC
:1043300001D1012010BD94F8390028B9002184F87A
:104340003810204601F08BFA022084F83900211D34
:10435000206800F006F9012084F83900002010BD23
:1043600010B5040001D1012010BD94F8390028B91E
:10437000002184F83810204601F004FB022084F864
:104380003900211D206800F0ECF8012084F8390084
:10439000002010BDF0B5040081B00D4608BF01201B
:1043A00040D094F8390028B9002184F8381020460C
:1043B00001F025FA022084F8390020688168C908D4
:1043C000C9008160211D206800F0CBF82268DFF869
:1043D000441193689769166AA8680F400743A86953
:1043E000DFF8341147EA0027E8680F40E96907431E
:1043F000286947EA0127296A47EA001747EA01378F
:104400006868696926F0AA0606432868034346EAF5
:104410000116936021688F6101212068066284F88B
:104420003910002001B0F0BD30B5044681B094F8D9
:10443000380001280D4608BF022068D0012084F80A
:10444000380002210C2A84F8391059D8DFE802F02C
:10445000075858581B585858305858584400206826
:10446000294600F0F8F82068816941F0080181616F
:104470002068816921F00401816121688A692869C5
:1044800002438A613CE02068294600F0B6F82068C3
:10449000816941F4006181612068816921F4806152
:1044A0008161206881692A6941EA0221816127E0EE
:1044B0002068294600F0F8F82068C16941F0080139
:1044C000C1612068C16921F00401C1612168CA6924
:1044D00028690243CA6113E02068294600F010F9F8
:1044E0002068C16941F40061C1612068C16921F49B
:1044F0008061C1612068C1692A6941EA0221C16104
:10450000012084F83900002184F83810002001B01F
:1045100030BD0000FCFCFFFF0303FFFF10B50446A5
:1045200094F83800012801D1022010BD012084F840
:104530003800022284F83920204600F01DF9206856
:10454000C16821F04001C1602068C16821F4804148
:10455000C160012084F83900002184F8381000205F
:1045600010BD30B4794B0468984218BFB0F1804F49
:104570000BD0774A90421CBF764DA84205D0764AB0
:1045800090421CBF754DA84210D14A6824F07004B7
:104590001443984218BFB0F1804F1BD06C4A904230
:1045A0001FBF6C4DA8426C4A904213D06B4DA8427D
:1045B0001CBF6B4A90420DD06A4DA8421CBF6A4A8C
:1045C000904207D0694DA8421FBF694A9042694D89
:1045D000A84203D1CA6824F440741443046098428A
:1045E0008C68C4620A68826219BF5C4B9842096990
:1045F00001630122426130BC704770B4026A534EBD
:1046000022F010020262B042056A436884690A68B7
:1046100024F4E64444EA02248A6825F0200545EAA9
:1046200002151CBF4D4A90420DD1CA684E6925F053
:10463000800545EA02158A6923F44063164325F094
:10464000400543EA860343608461496881630562EB
:1046500070BC70470000F0B4026A52085200026257
:10466000066A446885690B688A6825F073051D43EE
:1046700026F002061643354B98421CBF374FB8420E
:104680000BD1CA684B6926F0080624F4407416431F
:104690008A691C4326F00406144344608561496816
:1046A00041630662F0BC704770B4026A22F4807203
:1046B0000262056A4368C4690A688E6824F073045C
:1046C000144325F40075214A45EA062590421CBF93
:1046D000224EB0420DD1CA684E6925F4006545EA04
:1046E00002258A6923F44053164325F4806543EA82
:1046F00006134360C4614968C163056270BC7047BA
:1047000070B4026A114E22F480520262B042046A0E
:104710004268C3690D6823F4E64343EA05238D68C4
:1047200024F4005444EA05341CBF0C4DA84204D1C3
:104730004D6922F4804242EA85124260C3614968B1
:104740000164046270BC704700000000000001407A
:104750000004004000080040000C0040000401403C
:104760000040014000440140004801400018004062
:10477000001C0040002000400368D3F808C04A68CD
:1047800008682CF0700C42EA0C0C4FEADC0C40EA92
:10479000CC0CC3F808C04A68402A13D0502A1FD056
:1047A000602A35D0702A47D108698A68C968D3F869
:1047B00008C02CF47F4C41EA0C010A4342EA002273
:1047C0009A607047186A1A6A520852001A629A6907
:1047D000096922F0F00242EA01129A6118627047F8
:1047E000086989681A6AD3F820C04FEA5C0C4FEA5E
:1047F0004C0CC3F820C022F00A02D3F818C02CF0E9
:10480000F00C4CEA001CC3F818C011431962704741
:10481000086989681A6A22F010021A629A69D3F844
:1048200020C022F4704242EA00322CF0A00C9A61BF
:104830004CEA011CC3F820C07047000090F83820F3
:10484000012A01D102207047012280F8382002237A
:1048500080F839300268536823F0700353600368AE
:10486000D3F804C00A6842EA0C0CC3F804C002681A
:10487000936823F0800393600268936849680B4350
:104880009360012280F83920002180F83810002040
:10489000704730B490F83820012A08BF022024D095
:1048A000012280F83820CD688B684A688C6925F42D
:1048B00040751D4325F4806515430B680A694969F5
:1048C00025F400651D4325F48055154325F4005556
:1048D0000D4325F480452543026825F400452C430B
:1048E0005464002180F83810002030BC704700006C
:1048F00010B5040001D1012010BD94F8390028B989
:10490000002184F83810204600F0DEFF242084F8CF
:1049100039002068C16821F40051C160204600F0D0
:1049200017F82068016921F490410161206841690C
:1049300021F02A0141612068C16841F40051C16041
:104940000020E063202184F8391084F83A1010BD6B
:104950002DE9F047044622681169E06821F44051CE
:1049600001431161D3688C48A168034020690B435F
:1049700061690343E0690B430343D3605169A06954
:1049800021F44071014351618448E169B1F5004F60
:1049900040F0A18082421CBF814882424DD100F08C
:1049A00012FC054600F00FFC064600F00CFC074622
:1049B00000F009FCDFF8ECA1804600F004FC642262
:1049C0006168DFF8E0E119235F435E434900B7FB0C
:1049D000F1F7A7FB0AA9B6FBF1F64FEA991702FB1C
:1049E0001766F60032365D43B5FBF1FCACFB0EE515
:1049F000DFF8B0C1A6FB0CC7BE097600AD0906F40E
:104A0000F87606EB051603FB08F74343B3FBF1F01A
:104A1000B7FBF1F5634BA0FB0331890902FB11528F
:104A2000D20032325F4D2168A2FB0550800900F0B0
:104A3000070086198E60BDE8F08700F0BAFB0546D6
:104A400000F0B7FB064600F0B4FB074600F0B1FBF0
:104A5000DFF850A1804600F0ACFB64226168DFF80B
:104A600044E119235F435E434900B7FBF1F7A7FB1D
:104A70000AA9B6FBF1F64FEA991702FB1766F60092
:104A800032365D43B5FBF1FCACFB0EE5DFF814C13B
:104A9000A6FB0CC7BE097600AD0906F4F87606EB56
:104AA000051603FB08F74343B3FBF1F0B7FBF1F541
:104AB0003C4BA0FB0331890902FB1152D200323278
:104AC000384D2168A2FB0550800900F007008619C7
:104AD0008E60BDE8F08782421CBF314882420ED111
:104AE00000F071FB054600F06EFB064600F06BFB24
:104AF000074600F068FB804600F065FB0DE000F023
:104B000058FB054600F055FB064600F052FB0746F1
:104B100000F04FFB804600F04CFBDFF888A0616896
:104B2000DFF880E0642219235F435E438900B7FB0E
:104B3000F1F7A7FB0AA9B6FBF1F64FEA991702FBBA
:104B4000176636015D433236B5FBF1FCACFB0EE572
:104B5000DFF850C0A6FB0CC7BE09AD0906F0F00691
:104B600006EB051603FB08F74343B3FBF1F0B7FB75
:104B7000F1F50C4BA0FB0331890902FB1152120124
:104B80003232084D2168A2FB0550800900F00F0069
:104B900086198E60BDE8F087F369FFFF00100140C1
:104BA000001401403E0AD7A310B582B000F0FEFA0F
:104BB0000C4A0D4CA0FB0221880A00F076F8211D5A
:104BC0002046FCF7AFF9FCF79DFC00BF07A0009062
:104BD000231D2246012104F10800FDF7D9FB02B094
:104BE00010BD0000986E1283F4050020504D534D07
:104BF00020456E636F646572205354204D432053EB
:104C0000444B095665722E352E322E3000000000BE
:104C10000000000000000000000000000000000094
:104C20000000000000000000000000002E4B19688A
:104C30004FF6FF020002114000F4E06008432B49E8
:104C400008431860704730B4274B1C68C4F3022334
:104C5000C3F10704052C28BF04241D1D072D34BFF4
:104C60000023DB1E012505FA04F4641E214099404F
:104C700005FA03F35B1E1A4011430901020007D530
:104C80001B4A00F00F00104400F8041C30BC7047B1
:104C9000184B195430BC7047012200F01F01164B0D
:104CA0008A40400943F820207047401EB0F1807FC1
:104CB00001D30120704711494860F02081F8130D9D
:104CC00000228A60072008600020704704280B49F2
:104CD00004D1086840F00400086070470A6822F0B8
:104CE00004020A60704700000CED00E00000FA05C5
:104CF00018ED00E000E400E000E100E010E000E07A
:104D000000F000B87047000030B581B0044600F0F4
:104D10003BFE14F1010F054602D0054801786418E6
:104D200000F032FE401BA042FAD301B030BD00BFFC
:104D3000000600202DE9F041040082B01AD020784E
:104D4000DFF83863C10740F1F780B06800F00C006D
:104D5000042807D0B06800F00C0008280ED1706855
:104D600041020BD53068810340F1E680606800287D
:104D700040F0E280012002B0BDE8F0816068B0F54B
:104D8000803F04D1306840F48030306011E0B0F5ED
:104D9000A02F306806D140F480203060316841F4A3
:104DA000803105E020F480303060316821F48021CA
:104DB0003160606878B100F0E7FD05463068810336
:104DC00000F1BA8000F0E0FD401B6528F6D3032017
:104DD00002B0BDE8F08100F0D7FD054630688103E0
:104DE00040F1AA8000F0D0FD401B6528F6D30320D7
:104DF00002B0BDE8F08100BF00F0C6FD401B0228F4
:104E000040F2C780032002B0BDE8F081E0689C4911
:104E100088B101220A6000F0B7FD054630688107BD
:104E200000F1E58000F0B0FD401B0228F6D9032018
:104E300002B0BDE8F081086000F0A6FD05463168CB
:104E4000880740F1988000F09FFD401B0228F6D9AA
:104E5000032002B0BDE8F081C1F8800E00F094FD9F
:104E60000546706F810740F1988000F08DFD401B72
:104E70000228F6D9032002B0BDE8F0810528306F82
:104E800006D140F004003067306F40F0010005E0CB
:104E9000400840003067306F20F004003067A068A1
:104EA00088B100F071FD074641F28938306F810703
:104EB00000F1AD8000F068FDC01B4045F6D3032033
:104EC00002B0BDE8F08100F05FFD074641F289388D
:104ED000306F810740F19B8000F056FDC01B4045BC
:104EE000F6D3032002B0BDE8F08100BF00F04CFD16
:104EF000C01B022840F2A180032002B0BDE8F0816F
:104F000000F042FD001B022840F2AF80032002B0F7
:104F1000BDE8F0810020286600F036FD04463068C8
:104F2000810140F1A68000F02FFD001B0228F6D978
:104F3000032002B0BDE8F081207881071BD5B0685E
:104F400010F00C0F09D0B06800F00C0008287FF4B6
:104F50005DAF706841023FF559AF3068810703D5F6
:104F6000E06801287FF406AF3168206921F0F8017C
:104F700041EAC0013160217808070ED560694049D7
:104F800000283FF469AF0122C1F8802E00F0FCFC3C
:104F90000546706F81077FF52FAF207841073BD51D
:104FA000306C0025C1000AD400950125316C41F018
:104FB00080513164306C00F0805000900098314F87
:104FC0003868C1051BD4386840F48070386000F040
:104FD000DBFC80463868C10511D400F0D5FCA0EB9D
:104FE00008000228F6D9032002B0BDE8F08130683D
:104FF000216920F0F80040EAC1003060BBE7A068FA
:1050000001287FF43BAF306F40F0010046E71DB14F
:10501000306C20F080503064A06950B3B16801F06A
:105020000C0108293FF4A6AE0228154D7FF472AF9B
:105030000020286600F0A8FC0746306881013FF593
:1050400055AFE269206A616A0243A06A400842EAF9
:105050008112401E42EA0042E06A42EA0062726047
:105060000121296600F090FC0446306881017FF53B
:1050700047AF002002B0BDE8F08100BF0038024019
:1050800000004742007000402DE9F04104000E4648
:1050900000F08580514DD5F8000400F00F00B042BB
:1050A00007D285F80064D5F8000400F00F00B04284
:1050B00075D12068810712D5400703D5A96841F44E
:1050C000E051A9602078010703D5A86840F460404A
:1050D000A860A968A06821F0F0010143A9602178C7
:1050E000C8074ED56068012802D129688A0305E007
:1050F000022818BF032805D129688A0105D4012098
:10510000BDE8F08129688A0749D5A968890840EA7D
:105110008100A86041F2893800F036FC0746A86893
:10512000616800F00C00B0EB810F2AD000F02CFC7D
:10513000C01B4045F3D30320BDE8F0812078410730
:1051400005D5AA68E06822F4E0520243AA602178FB
:10515000080706D5A968206921F4604141EAC00129
:10516000A96000F047F8AA681D491E4BC2F303125C
:10517000895CC8401860042000F0E0FB0020BDE816
:10518000F081D5F8000400F00F008642D6D285F8F1
:105190000064D5F8000400F00F00B042CED001202A
:1051A000BDE8F08111490120086070470D48006892
:1051B00070470C480C4A006813680D49C3F38222FB
:1051C000895CC84070470748074A00681368084967
:1051D000C3F34232895CC840704700000038024087
:1051E000545E00080C060020083802404C0047427C
:1051F000685F000830B5144C606800F00C000428AB
:1052000003D0082803D0114830BD114830BD2268B2
:1052100020680023410202F03F0204D525680C49B2
:10522000C5F3881003E020680849C0F38810A1FB8B
:10523000000100F0AFFB2168C1F30141491C4900A6
:10524000B0FBF1F030BD00BF043802400024F40090
:1052500000127A0030B581B00446002514B901204F
:1052600001B030BD206C28B9656484F83C0020464C
:1052700000F065FA206CC10610D4206C20F4885030
:1052800040F002002064204600F0C2F86564216C02
:1052900021F0020141F00101216400E0012500201C
:1052A00084F83C0001B0284630BD70B481B002469D
:1052B0000020009092F83C30012B08BF022000F043
:1052C000A480012082F83C0007240B6810680A2B98
:1052D00012D30A3BC56803EB43039C4025EA040450
:1052E000C460C3680D688C68A5F10A0606EB460623
:1052F000B4402343C3600FE0056903EB430304FAA2
:1053000003F325EA0303036103690D688C6805EB69
:105310004505AC40234303611F244B68072B11D282
:105320005B1E456B03EB83039C4025EA0404446346
:10533000436B4D680C886E1E06EB8606B440234313
:10534000436325E00D2B11D2DB1F056B03EB8303B9
:105350009C4025EA04040463036B4D680C88EE1F2F
:1053600006EB8606B4402343036311E00D3BC56A98
:1053700003EB83039C4025EA0404C462C36A4D68BE
:105380000C88A5F10D0606EB8606B4402343C362E4
:105390005E4B984235D10868122804D15C480368F6
:1053A00043F4800303600868102818BF112828D12F
:1053B0005748036843F4000303600868102820D1AD
:1053C0005149504C0868A0FB0443DB0C03EB8305F8
:1053D0006D0000950098A0B10098401E00900098C4
:1053E00078B10098401E0090009850B10098401E7F
:1053F0000090009828B10098401E00900098002866
:10540000EAD1002182F83C10002001B070BC704746
:105410003F4A116821F440311160136841680B4321
:1054200013600268536823F4807353605168036902
:1054300041EA03215160516821F040715160536885
:1054400081680B435360936823F40063936093680F
:10545000C1680B4393602F49836A8B4210D09368D5
:1054600023F0706393609368816A0B439360936841
:1054700023F0405393609368C16A0B43936007E045
:10548000916821F070619160916821F040519160C4
:10549000916821F0020191609168836941EA4301BA
:1054A0009160016A002951680CD041F4006151609B
:1054B000516821F4604151605168436A5B1E41EAC2
:1054C000433101E021F400615160D16A21F470019F
:1054D000D162D16AC3695B1E41EA0351D16291680E
:1054E00021F4007191609168036B41EA432191605E
:1054F000916821F4806191609168406941EA80215E
:105500009160704706BD37860C06002000200140E0
:10551000042301400100000F70B490F83C20012AE0
:1055200008BF022000F0BA80012280F83C20072446
:105530000A6803680A2A12D30A3ADD6802EB4202BB
:10554000944025EA0404DC60DA680D688C68A5F1F3
:105550000A0606EB4606B4402243DA600FE01D69F6
:1055600002EB420204FA02F225EA02021A611A6907
:105570000D688C6805EB4505AC4022431A611F2578
:105580009A6B22F440129A639A6B0C69641E42EA89
:1055900004529A639C6B4E680A69F61CB61A06EBB5
:1055A0008606B540AC439C639C6B4E680A690D88C7
:1055B000F61CB61A06EB8606B5402C439C63CA69F6
:1055C000394CA2429A6822F470229A600CD09C68EE
:1055D000CA6914439C609C6824F440149C609C68D5
:1055E0000A6A14439C6003E09A6822F440129A60AD
:1055F0008A69002A5A6814BF42F4806222F48062E9
:105600005A604A69002A5A6814BF42F4805222F450
:1056100080525A604A68012A04D01ED3032A13D04C
:1056200009D31AE05C69240B24035C615C69CA68D5
:1056300014435C6119E09A69120B12039A619C6928
:10564000CA6814439C6110E0DA69120B1203DA6134
:10565000DC69CA681443DC6107E01A6A120B1203A2
:105660001A621C6ACA6814431C620D4CA34211D111
:105670000A68122A04D10B4A136843F480031360AA
:105680000968102918BF112904D106490A6842F493
:1056900000020A60002180F83C10002070BC7047B6
:1056A000002001400423014001000F0000B581B03B
:1056B0000020009000229548416841F480414160FB
:1056C000416801F48041009100990092036843F021
:1056D00080530360006800F0805000900098042020
:1056E000FFF7A4FA002200216FF00B00FFF7ABFADE
:1056F000002200216FF00A00FFF7A5FA0022002126
:105700006FF00900FFF79FFA002200216FF00400FC
:10571000FFF799FA002200216FF00300FFF793FAD8
:10572000002200216FF00100FFF78DFA01B05DF853
:1057300004EB002204214FF0FF30FFF784BA00B5DC
:1057400087B000687249884216D100200590032274
:105750007048016841F4807101600921006800F41B
:105760008070059005986C4800910192002102918B
:105770006946FEF7B5FC0EE0684988421ED100205C
:1057800005906448016841F400710160006800F40C
:105790000070059005986248402100910322002185
:1057A000029101926946FEF79BFC03200090019054
:1057B0000022029269465B48FEF792FC07B000BDEA
:1057C00000685949884200D0704700B587B0002270
:1057D0004E4800920322016841F0005101603021DF
:1057E000006800F00050009000984D48019102922E
:1057F0000021039101A9FEF773FC07B000BD00680A
:10580000B0F1804F00D0704700B587B000213F480D
:1058100000910821026842F0010202600222006841
:1058200000F00100009000983E4801910292002192
:10583000039104910121059101A9FEF751FC4FF458
:105840000041019102220021039104910292012161
:10585000059101A93248FEF743FC07B000BD81B0B5
:105860000068324988420BD100222A480092016820
:1058700041F002010160006800F002000090009811
:1058800001B0704700682949884200D0704700B5D0
:1058900085B0E0220092022101910291039103223E
:1058A000049269462248FEF71BFC4FF460410091C8
:1058B00002220321049101920292039269461D483B
:1058C000FEF70EFC05B000BD00681B49884200D001
:1058D000704700B587B000220E480092022201688E
:1058E00041F010010160C021006800F0100000903C
:1058F00000980C4801910292002103910491072124
:10590000059101A9FEF7ECFB07B000BD403802404D
:1059100000200140443802400008024000210140BC
:1059200000000240000402400074004000040140F6
:1059300000200240001C02400010014030B50F4D15
:105940000F4B2A7804464FF47A711868B1FBF2F2D3
:1059500081B0B0FBF2F0FFF7A8F958B9102C09D2CA
:10596000002221464FF0FF30FFF76DF9AC600020B8
:1059700001B030BD012001B030BD00BF00060020E5
:105980000C0600207047000001484068704700BFC7
:1059900000060020BBBBE1B1B2F5803F80F07E8005
:1059A000022A1ED98C46B1FBF2F102FB11C31B0483
:1059B00043EA1043B3FBF2FC02FB1C3380B240EA23
:1059C0000343B3FBF2F002FB103240EA0C40002329
:1059D0007047022A05D98446B0FBF2F002FB10C2E0
:1059E00070474AB105D100F0010249085FEA300072
:1059F000704700220023704700F0E4B80B0002005B
:105A0000002100207047904271EB030CF6D3B3F5F0
:105A1000803F2FD2F0B5B3FA83F7B1FA81F4A7F142
:105A20000F0E3D1B5340CEF1200602FA0EF2F34159
:105A30005340B5F10F0746D80F3C2C444140C4F108
:105A40002006A040F1414140B1FBF3F603FB1611E3
:105A5000A2FB0645001BA94102D2761E80185941BF
:105A600080EA010221FA0EF362FA0EF200215A4096
:105A70003046F0BD30B4B1FBF3FC03FB1C11A2FBBC
:105A80000C45001BA94103D2ACF1010C801859410F
:105A900030BC02460B46604600217047B2F1807F61
:105AA00065D3F0B5B2FA82F7B1FA81F4C7F10F0607
:105AB0003D1B22FA06F307F1110EF24120355A4040
:105AC000B5F10F07B8D94140C4F12006A040F1411B
:105AD0004140B1FBF3FC03FB1C11A2FB0C45001B76
